:020000040800F2
:10B00000C037002081B2000839120108AB0C0108DA
:10B010003512010809D30008D11E01080000000004
:10B02000000000000000000000000000DD15010825
:10B0300079D30008000000003D120108E115010865
:10B040009BB200089BB200089BB200089BB20008AC
:10B050009BB200089BB200089BB200089BB200089C
:10B060009BB200089BB200089BB200080DD30008F9
:10B070009BB200089BB200081DD300082DD3000826
:10B080009BB200089BB200089BB200089BB200086C
:10B090009BB200089BB200089BB200089BB200085C
:10B0A0009BB200089BB200089BB200089BB200084C
:10B0B0009BB20008A11601089BB200089BB20008D1
:10B0C0009BB200089BB200089BB2000869120108FD
:10B0D0006D120108B11E0108C11E01089BB20008D3
:10B0E0007BD300089BB200089BB200089BB200080B
:10B0F000B11601089BB200089BB200089BB2000881
:10B100009BB200089BB200089BB200089BB20008EB
:10B110009BB200089BB200089BB200089BB20008DB
:10B120009BB200089BB200089BB200083DD3000808
:10B1300000F002F800F094F80AA090E8000C8244B5
:10B140008344AAF10107DA4501D100F089F8AFF292
:10B15000090EBAE80F0013F0010F18BFFB1A43F0F5
:10B160000103184704E2000024E20000103A24BF63
:10B1700078C878C1FAD8520724BF30C830C144BF5C
:10B1800004680C607047000000230024002500269E
:10B19000103A28BF78C1FBD8520728BF30C148BF3A
:10B1A0000B6070476E2900F03384702900F09D8594
:10B1B00066290DF08E8465290DF08B8467290DF0CA
:10B1C000888461290DF0878403681B0A28BF41F039
:10B1D0008001692900F02681642900F02381752906
:10B1E00000F020816F2900F02A85782900F0698518
:10B1F000E92900F0C584E42900F0C284F52900F0B3
:10B20000BF84EF2900F02785F82900F068850368DE
:10B21000DB0928BF41F08001632900F034847329E1
:10B2200000F03984E32901F0C781F32901F0CC81D2
:10B23000002070471FB59DE8030000F009FB01F0F6
:10B2400085FA0400002000210CF040FD401C6060E5
:10B25000002000210CF050FDE0601FBD10B510BDB6
:10B2600001F04FFA1146FFF7E5FF0AF03FFD01F04C
:10B2700031FB03B4FFF7F2FF03BC01F061FB0000F8
:10B280000948804709480047FEE7FEE7FEE7FEE77A
:10B29000FEE7FEE7FEE7FEE7FEE7FEE704480549B6
:10B2A000054A064B704700009116010831B10008AD
:10B2B000C0310020C0370020C0330020C033002040
:10B2C00070B5064600F0A4FA056806F10B0020F000
:10B2D0000704B4429CBF002070BD2B466A68BAB117
:10B2E0001068A04210D304F1080188423CBF5068A6
:10B2F000586007D35168101941601168091B01603B
:10B3000058601460101D70BD13465268002AE7D1C2
:10B310002146284600F088FA0028DED170BD70B5BD
:10B320000446051F00F074FA0068002C14BF44683E
:10B3300070BD002C18BFAC423CBF20466468F8D3F7
:10B3400001680A18AA4218BF456003D12A68054659
:10B350001144016028684119A1421CBF6C6070BD96
:10B360006168696021680844286070BDB2F12003FB
:10B370000AD5C2F1200320FA02F001FA03F321FA00
:10B3800002F140EA0300704721FA03F04FF0000198
:10B39000704700001CB50C46064B7B446946009084
:10B3A000204600F04EFB04460020694600F05CFB9E
:10B3B00020461CBDCB0600000FB4044910B503AAFB
:10B3C000029800F06DFB10BC5DF814FBAC0000208F
:10B3D00070B50C460546012A05D02878800600D5B0
:10B3E000EA69002302E0012305E05B1C934202D2DC
:10B3F000E05C0028F9D1A869E618C01AA861286A9B
:10B4000018442862284600F071FA04E0D5E90121C9
:10B4100014F8010B9047B442F8D3284600F07CFAA8
:10B4200070BD00002DE9F041064600241068752922
:10B43000314616A510D000F080FA002802DA40420A
:10B4400013A507E031688A0701D512A502E0490774
:10B4500004D511A5012401E000F078FA00210A22A8
:10B4600006F1240709E0B0FBF2FCB0FBF2F302FBAB
:10B470001C00303078541846491C0028F3D123466C
:10B480002A463046BDE8F04100F069BA00000000ED
:10B490002D0000002B000000200000002DE9F05FCF
:10B4A000894604464FF0000ADFF874B1FB44C0F847
:10B4B00020A02046E1688847002874D0252806D0BF
:10B4C000D4E901219047206A401C2062F1E7002660
:10B4D0005F462046E16888472028054607DB312D76
:10B4E00005D2781910F8200C08B10643F1E7B0072F
:10B4F00001D526F00406C4F81CA00027C4F818A043
:10B500002A2D09D0284606F079FD38B304EB8708C8
:10B51000303DC8F8185019E059F8041B204604EBD8
:10B5200087029161E1688847012F054618D1E069DB
:10B53000002820DA26F020061DE0D8F8180000EBDD
:10B54000800005EB40003038C8F818002046E1685C
:10B550008847054606F052FD0028EED1012F0AD09B
:10B560002E2D08D12046E16888477F1C0546022F12
:10B5700046F02006C4DBA069002803DA404246F00A
:10B580000106A061F00701D026F010066C2D0BD04B
:10B59000682D09D04C2D39D06A2D35D0742D35D079
:10B5A0007A2D33D016E038E0E1682F4620468847F0
:10B5B000B842054609D16C2F26D04FF48060E1686F
:10B5C000064320468847054604E06C2F1AD04FF406
:10B5D000807006430DB3A5F14100192802D820352B
:10B5E00046F400664A462946204626604E46FFF746
:10B5F000D9FD80B101280BD0F61D26F0070000F11F
:10B60000080956E74020E4E78020D8E70020D6E785
:10B6100006F104094DE7284652E7206ABDE8F09F8D
:10B6200025DD000070B5064600F0F6F80468054612
:10B6300030460A22002100F063FB2C6070BD09F047
:10B6400001BE0000014A00F093BB0000FC00002096
:10B65000401ECAB210F8011F8A4202D00029F9D157
:10B660000020704740EA0103024630B59B0710D125
:10B670004FF0013400E008C208C91D1B9D4315EAC4
:10B68000C41FF8D013F0FF0102F8011B0DD01B0AF4
:10B69000F8E711F8013B002B02F8013B05D011F847
:10B6A000013B002B02F8013BF3D130BD2DE9F04105
:10B6B0000E460546002400E0641C285D00F009F9F0
:10B6C0000746305D00F005F9381A02D1295D0029DE
:10B6D000F2D1BDE8F08110B5431C02E010F8011B67
:10B6E00071B18107FAD14FF0013202C88C1A8C4334
:10B6F00014EAC211F9D0C01A0A0603D0C01E10BD48
:10B70000C01A10BD0A0401D0801E10BD0902FCD071
:10B71000401E10BD10B5203AC0F00B80B1E81850A3
:10B72000203AA0E81850B1E81850A0E81850BFF42B
:10B73000F5AF5FEA027C24BFB1E81850A0E81850CA
:10B7400044BF18C918C0BDE810405FEA827C24BF1E
:10B7500051F8043B40F8043B08BF7047D20728BFAC
:10B7600031F8023B48BF11F8012B28BF20F8023BFB
:10B7700048BF00F8012B70474FF000020429C0F0C9
:10B78000128010F0030C00F01B80CCF1040CBCF113
:10B79000020F18BF00F8012BA8BF20F8022BA1EB65
:10B7A0000C0100F00DB85FEAC17C24BF00F8012B4A
:10B7B00000F8012B48BF00F8012B70474FF0000242
:10B7C00000B5134694469646203922BFA0E80C5097
:10B7D000A0E80C50B1F12001BFF4F7AF090728BF72
:10B7E000A0E80C5048BF0CC05DF804EB890028BFEE
:10B7F00040F8042B08BF704748BF20F8022B11F017
:10B80000804F18BF00F8012B704770477047704792
:10B810000048704764310020004870475C310020C8
:10B82000704770477047704738B504460A46002095
:10B830006946AFF30080002808BF38BD0246009972
:10B84000204600F0C3FA012038BD012000F033BFCC
:10B85000F8B5AFF30080054600200C46102000BF6D
:10B860000646A819A0420DD9324669460020AFF31A
:10B870000080070008BF00F01EFF0098A04218BF1C
:10B880000546C419FFF7C4FF05600746F01D20F008
:10B8900007004619284600F00AF8B44208BFF8BD70
:10B8A000A21B31463868BDE8F84000F08FBA00218D
:10B8B0000160C0E9011070471020704710B5FFF714
:10B8C000ABFF006810BD10B50446FFF7A5FF04608C
:10B8D00010BD10B5044600F071FA0068005DC006A6
:10B8E00002D504F1200010BD204610BD70B50446FD
:10B8F00085690068C10601D5302600E02026C00712
:10B9000007D070BDD4E9012130469047206A401C21
:10B9100020626D1EF6D570BD70B50446856900784D
:10B92000C00707D170BDD4E9012120209047206ACB
:10B93000401C20626D1EF6D570BD09684A0501D510
:10B9400040B27047C905FCD500B2704709684A0586
:10B9500001D5C0B27047C905FCD580B270472DE94A
:10B96000F0470D4699469246044600F124080168C6
:10B97000880604D5E06921F01001216000E0012073
:10B98000A84201DD471B00E00027A1697A1902EBFC
:10B990000900081AA0612078C00602D42046FFF7EB
:10B9A000A5FF002608E0D4E901211AF80600904717
:10B9B000206A401C761C20624E45F4DB2078C006CD
:10B9C0000AD52046FFF792FF06E0D4E90121302096
:10B9D0009047206A401C2062381EA7F10107F4DC62
:10B9E00007E0D4E9012118F805009047206A401CBF
:10B9F0002062281EA5F10105F3DC2046FFF78CFF2D
:10BA00002078000602D50220BDE8F0870120FBE780
:10BA100011680268006A530501D508700AE0D30571
:10BA200001D5088006E0130603D5C217C1E900025C
:10BA300000E008600120704701694A1C0261087833
:10BA4000704700B58FB0CDE901310021059105495E
:10BA50007944CDE9031011466846FFF71FFD0FB08A
:10BA600000BD0000E5FFFFFF0A6802F8010B0A6055
:10BA7000704710B5436913B1AFF3008001E0FFF7E1
:10BA8000A7FC012010BD127800F124010A700022E9
:10BA90004A700122EDE711684FF0FF32E9E700003C
:10BAA000074B70B50D467B44FFF7CBFF0446284695
:10BAB00000F0DDFD10B14FF0FF3070BD204670BDCD
:10BAC0009B9700002DE9FF5F15468A460446DFF884
:10BAD000AC80F8440027D8E900103E46CDE90010BC
:10BAE00010E03AF816106A4602A800F0C4FD411CA6
:10BAF00007D02178890603D5E269391891420DD81B
:10BB00000744761C2078800602D5E069B84205DD3E
:10BB1000AE42E6DB3AF816000028E2D1A069C01B6D
:10BB2000A0612046FFF7E2FED8E90010CDE9001041
:10BB3000002017E03AF818106A4602A800F09BFDB2
:10BB4000B0F1FF3F81460BD000250DF1080B05E059
:10BB5000D4E901211BF8050090476D1C4D45F7D332
:10BB600008F10100B0428046E4DB206A38442062DC
:10BB70002046FFF7D1FEBDE8FF9F000012D700006E
:10BB80002DE9F0418046D21D22F007020025D2E9BE
:10BB90000002F52915A614D0011E72F1000106DA83
:10BBA0000023D0EB030063EB020211A608E0D8F8F3
:10BBB00000108B0701D50FA602E0490701D50EA69C
:10BBC00001251146002408F1240704E000F018F9CB
:10BBD00030323A55641C50EA0102F7D12B46324606
:10BBE00021464046BDE8F041FFF7B9BE0000000025
:10BBF0002D0000002B0000002000000030B40021C8
:10BC000000F1240408E002F00705D208303542EACA
:10BC10004372DB086554491C52EA0305F3D10468FA
:10BC2000002310A2250707D5A40600D421B1C469BA
:10BC300001230DA2641EC46130BCFFF790BE10B595
:10BC4000044621461068FFF781FE02462046BDE803
:10BC500010400023D2E7D21D22F00701D1E90023D2
:10BC6000CCE700000000000030000000F0B40D46FA
:10BC70000188090502D5214C7C4402E01F4C7C441C
:10BC80000E34002100F1240608E002F00F0712092B
:10BC9000E75D42EA03721B097754491C52EA030725
:10BCA000F3D102780023120704D5702D06D009B114
:10BCB000022311342246F0BCFFF751BE0123103499
:10BCC000F8E770B504460D4621461068FFF73EFEC2
:10BCD000024629462046BDE870400023C6E7D21D33
:10BCE00022F00703D3E90023C0E70368126843F09A
:10BCF000200303600823C3610023B7E774D5000065
:10BD00002DE9F04791460F4680460446002614F878
:10BD1000015B2DB100F052F80068405DC007F6D11C
:10BD20002B2D02D02D2D18D0641E4A4639462046B0
:10BD300000F04EFC27B13968A14201D1C7F800805C
:10BD40004FF0020471050BD54042002803DDFFF7D8
:10BD500063FD0460A007BDE8F08746F48066E4E771
:10BD60000028F8DAFFF758FD04606FF00040F2E7B2
:10BD70002DE9F04115460E46040002D12C6804B9A5
:10BD80000BA4204600F0AEFC0444207870B1274696
:10BD90003146384600F096FC0444207810B100206B
:10BDA00004F8010B38462C60BDE8F0810027F9E764
:10BDB00000000000004870475C31002010B500F022
:10BDC000C5FC001D10BD00BF05BF00000346406854
:10BDD0008C46002818BF88423CBF03464068F8D311
:10BDE00018681844884207D00CF1030020F00700BF
:10BDF000001D411A521A0146081D0A60FFF78FBA4A
:10BE000030B5B0F10A024FEA900E71F100034EEA2C
:10BE1000817EB0EB0E0061EB91014FEA101E4EEAFD
:10BE2000017E10EB0E0041EB11114FEA102E4EEA8D
:10BE3000016E10EB0E0041EB11214FEA104E4EEA5D
:10BE4000014E10EB0E0041EB1141401841F1000191
:10BE50004FEAD00040EA41704FEAD10110EB800573
:10BE60004FEA810444EA907444EB01046D1944EBF9
:10BE70000404521BA3414FF0000348BF0A3200D50F
:10BE800030BD401C41F1000130BD70472DE9FF4F2E
:10BE90000C461E464FF0FF378BB0D2E90001DDF8AB
:10BEA00060800A908A46C1F30A5505B93D460021D3
:10BEB00008464FF00000BAF1000F00F4400005DA28
:10BEC00000EB80004FF4400101EA50004FEA905926
:10BED000B9F1010F00DDB9460A9850EA4A000ED0C8
:10BEE00044F61050A5F2FF3545432F14B8F1000F6A
:10BEF0001ED07542291E1EDDC9F100021CE0B8F1FA
:10BF0000010F4FF0000001D0302103E0F24305E0C3
:10BF10002154401CB042FBDB30460022002121545A
:10BF20000B99C1F80880C1E900200FB0BDE8F08F7F
:10BF3000BD1B6D1CDEE74A4600DA694206A800F028
:10BF400057FC06AB93E8070003AB83E807005046B5
:10BF50000A9900F05CFD8DE80700A0F500501F383D
:10BF600000900398002D0ADD42F21F014A46084462
:10BF7000002303A90390684600F0C5FF09E0A0F57F
:10BF800000504A461F38002303A90390684600F07A
:10BF9000CFFF8DE807000004000C03D04FF0FF3006
:10BFA000410800E01046B8F1000F03D000220092D3
:10BFB00015461EE0751E05D4FFF722FF303262558C
:10BFC0006D1EF9D5B3460122084302D000227F1C22
:10BFD00004E02078302801D100227F1E002A099732
:10BFE00084D01DE0112D07DAFFF70AFF30326255C9
:10BFF0006D1C50EA0102F5D1084302D00098C8B187
:10C000000EE00021681E05E0235C625C635422544C
:10C01000401E491C8142F7DBAB46A81B401E09901D
:10C02000002004F80B000B98099AC0F80880C0E9BA
:10C03000002B7AE711264FF0000857E72DE9F04F63
:10C0400088460446D21D22F0070191B0D1E90001D3
:10C05000CDE90A0105F03EFF02460B98C00F01D062
:10C060002D2007E02068810701D52B2002E0202148
:10C0700001EAC000032A099001D0072A05DB034624
:10C080004146204600F066FB0BE12078800601D592
:10C09000E06900E00620B8F1650F814606D0B8F1EE
:10C0A000660F18D0B8F1670F70D131E00020B9F1F8
:10C0B000110F009001DB112301E009F101030AAA2D
:10C0C00001A90CA8FFF7E2FEDDE90C70002609F1DA
:10C0D0000105834647E001204B4600904FF00047A2
:10C0E0000AAA01A90CA8FFF7D1FEDDE90DB00C9951
:10C0F0005D46002610B909F101000D18B9EB0500E5
:10C1000003D4C0F1FF3609F10105A5EB09002BE0CE
:10C11000B9F1010F01DA4FF001090020B9F1110F57
:10C120000090484601DD112300E003460AAA01A958
:10C130000CA8FFF7ABFEDDE90C704D4600268346E8
:10C14000207800070AD4AB4500DA5D4601A8012D2E
:10C1500004DD411911F8011C302907D04F4502DADE
:10C1600017F1040F04DA012082460FE06D1EEEE79E
:10C17000002F02DCED1B3E4403E0781CA84200DDEA
:10C180007D1CB81B00F1010A4FF000472078000722
:10C1900003D4AA4501DB4FF0FF3A0021B7F1004F6D
:10C1A0000DF143088DF8431024D002202B23002FDB
:10C1B00001DA7F422D230A21021EA0F1010000DCDA
:10C1C0005FB197FBF1FC97FBF1F201FB1C7C17467A
:10C1D0000CF1300C08F801CDEEE7A8F10100037076
:10C1E0002188090501D5452100E06521A0F101085C
:10C1F00000F8011C09980FA9A1EB0807FF1D00B169
:10C200000120411901EBEA70A1693844081A401E67
:10C21000A0612078C00602D42046FFF767FB09988A
:10C2200028B1D4E901219047206A401C206220787F
:10C23000C00622D52046FFF759FB1EE0002E04DB86
:10C24000B34502DD01A8805D00E03020D4E9012182
:10C250009047206A401C2062761CAAF101005FEA28
:10C26000000A0AD100F072FAC0680168405CD4E9A3
:10C2700001219047206A401C2062281EA5F101057B
:10C28000DCDC07E0D4E9012118F8010B9047206AB3
:10C29000401C2062381EA7F10107F3DC2046FFF79F
:10C2A0003BFB032011B041E62DE9F04F04460D465B
:10C2B000D21D22F0070089B0D0E9009748463946E0
:10C2C00005F008FE0246F80F01D02D2307E0206894
:10C2D000810701D52B2302E0202101EAC0038DF85C
:10C2E00020300BB1012000E00020032A824601D05B
:10C2F000072A04DB2946204600F02CFA3FE120788B
:10C30000800601D40D2500E0E569C7F30A560D2D1E
:10C3100049DA00214FEA175B08464FF00000002F72
:10C3200000F4400007DA00EB80004FF4400100EB1E
:10C33000D07001EA60008115012901DD4FF0FF3165
:10C3400000224FEA850CBCF1180F06D31346ACF15E
:10C3500018004FF08052C24003E04FF4801323FADC
:10C360000CF30CF10C0CBCF1200F04D3ACF1200C3D
:10C3700009FA0CF001E007FA0CF000294FF0004830
:10C3800001DD18B90FE00ED140450CD319EB0209BD
:10C390005F4121B9404502D19F4329EA0209BBEB25
:10C3A000175F00D0761C2088000502D57B487844B2
:10C3B00002E07A487844193808AA302302F80A3093
:10C3C000037C0AF10101002E0AF1020A53546A4665
:10C3D00002DC4FF0300101E04FF031014FF0010875
:10C3E0008DF8001002D0A6F2FF3603E059EA4701AB
:10C3F00000D06B4E002D02DC2178090704D54FF0E8
:10C4000002082E218DF80110C44600210BE0C7F36D
:10C4100003433F01C35C491C6D1E02F80830052927
:10C4200008F1010801DA002DF1DC00210CE000EB3D
:10C430001973491C1B786D1E082902F808304FEA51
:10C44000091908F1010801DA002DF0DC21688B06DA
:10C4500002D516E0A8F10108E04505DD02EB08036E
:10C4600013F8013C302BF5D0B8F1000F09DD02EBD9
:10C47000080313F8013C2E2B03D1090701D4A8F1BE
:10C480000108002D05DD3E2102F808106D1E08F19F
:10C490000108407C002E02F8080008F1010804DAC7
:10C4A0002D20764202F8080002E02B2002F8080056
:10C4B0000A214FF47A70864208F101080BDB96FBE3
:10C4C000F0F3303302F8083096FBF0F308F101087E
:10C4D00000FB136601E0642E0CDB642096FBF0F396
:10C4E000303302F8083096FBF0F308F1010800FB46
:10C4F000136601E00A2E06DB96FBF1F0303002F8FD
:10C50000080008F1010896FBF1F001FB10603030E3
:10C5100002F80800A16908F1010808EB050202EB26
:10C520000A00081AA0612078C00602D42046FFF74E
:10C53000DDF9216A08AE01EB0A00206204E0D4E9CB
:10C54000012116F8010B9047BAF1010AF7D22078C1
:10C55000C00602D52046FFF7C9F96E4609E016F875
:10C56000010B3E280FD0D4E901219047206A401CDE
:10C570002062B8F10108F2D22046FFF7CDF909B0E8
:10C580000320BDE8F08F206A2844206203E0D4E94C
:10C590000121302090476D1EEBD3F8E779CE0000E3
:10C5A00002FCFFFF10B5436913B1AFF3008001E057
:10C5B000FFF788FA012010BD128800F1240182845F
:10C5C0000022C2840122EDE711684FF0FF32E9E753
:10C5D0002DE9F05F824615468B4600270AF10104DB
:10C5E000B9460078302801D09DB113E014F8010B52
:10C5F0000127782803D0582801D045B10AE00DB1B1
:10C60000102D07D1002714F8010B102502E0082592
:10C6100000E00A250026B0460EE005FB080005FBF9
:10C6200006F101271FFA80F801EB1046B6F5803FAE
:10C6300000D3B94614F8010B294600F0CBF80028C6
:10C64000EBDABBF1000F05D00FB1641E00E05446D9
:10C65000CBF80040B9F1000F06D0FFF7DDF802215A
:10C660000160C81EBDE8F09F48EA0640FAE7007B7B
:10C6700000F08000704770B516460C460546FFF77F
:10C680009DFB036893F80101012806D0FF2C0FD809
:10C69000185D68B101202C7070BDD3F807013246D7
:10C6A000214603F2071303442846BDE870401847AB
:10C6B0004FF0FF3070BD10B500F01AF9BDE8104022
:10C6C00000F011B930B503461D781DB10A4603E0EC
:10C6D000AC4201D1181A30BD12F8014B002CF7D131
:10C6E0005B1CF1E730B503461D783DB10A4612F8F0
:10C6F000014B1CB1AC42FAD15B1CF5E7181A30BDF6
:10C7000070477546FFF756FBAE460500694653462F
:10C7100020F00700854618B020B5FEF7BFFDBDE844
:10C7200020404FF000064FF000074FF000084FF098
:10C73000000B21F00701AC46ACE8C009ACE8C00929
:10C74000ACE8C009ACE8C0098D46704700487047A6
:10C750007C3100202DE9F0411F4604460326016884
:10C76000072A01F4006004DB08B116A505E016A550
:10C7700003E008B115A500E015A521F01000206028
:10C78000A069C01EA0610FB1401EA0612046FFF746
:10C79000ADF84FB1D4E9012138469047206A401CDA
:10C7A0002062C01C206206E0206AFAE7D4E9012179
:10C7B00015F8010B9047761EF8D22046FFF7ACF82B
:10C7C000BDE8F0814E414E006E616E00494E46005C
:10C7D000696E66003A2800D2303820F02002412AE3
:10C7E00001D3A2F13700884201D34FF0FF307047E8
:10C7F0002DE9F047814616468AB0354878440DC881
:10C800008DE80D0032487844801C03AC0DC884E8E4
:10C810000D0041F69B300844372190FBF1F290FB6C
:10C82000F1F5A5F1800501FB12041B3C02D5644221
:10C83000012000E00020DFF898A080460027FA449D
:10C84000AAF1BE0A0EE0E0070AD03246684607EBBE
:10C85000470101230AEB810100F06AFB8DE8070024
:10C8600064107F1C002CEED1194F7F44AE3F19E0BD
:10C87000E80715D007EB04100DF1180A90E80E0038
:10C880008AE80E00C068F04201D19819089032463B
:10C89000012306A903A800F04BFB03AB83E80700C4
:10C8A0006D10641C002DE3D14FF001033246694640
:10C8B000B8F1000F03A802D000F025FB01E000F062
:10C8C00037FBC9E90001C9F808200AB0BDE8F087C4
:10C8D000BCCA000010B50446AFF300802046BDE896
:10C8E0001040FEF7C6BC002801D000F029B8704700
:10C8F00010B5012805D0002103A000F027F8012081
:10C9000010BD09A1F8E7000053494752544D454D69
:10C910003A204F7574206F662068656170206D65E0
:10C920006D6F7279000000003A2048656170206DDB
:10C93000656D6F727920636F7272757074656400D3
:10C9400001491820ABBEFEE72600020070B505467F
:10C950000C460A2000E06D1C00F052F835B1287832
:10C960000028F8D102E0641C00F04AF814B12078E5
:10C970000028F8D1BDE870400A2000F041B800005E
:10C980004FF0013C50F8042B51F8043B9A4221D15E
:10C99000A2EB0C03934313EACC1317D150F8042BEA
:10C9A00051F8043B9A4215D1A2EB0C03934313EACE
:10C9B000CC130BD150F8042B51F8043B9A4209D107
:10C9C000A2EB0C03934313EACC13DBD04FF000002F
:10C9D000704700BFD01A01BAB1FA81F101F0180115
:10C9E00022FA01F0CB40C1F12001DBB2C0B2C01A83
:10C9F0002CFA01F3D11A914311EAC311E6D1704721
:10CA000008B569468DF800000320ABBE08BD5FEA9B
:10CA1000400C08BF91F0000F4FEA8C234FEAC1226F
:10CA200043EA51514FEA1C5018BF00F5F0404FEA5D
:10CA3000300018BF41F000415FEA6C5C00F02980D3
:10CA4000BCF1FF3F08BF40F080407047130C06BFA9
:10CA500012044FF0100C4FF0000C130E04BF120222
:10CA60000CF1080C130F04BF12010CF1040C930F0E
:10CA700004BF92000CF1020CD30F04BF52000CF162
:10CA8000010C11464FF00002A0F11F00A0EB0C00BA
:10CA9000704711F0004F08BF704731F000413FF47C
:10CAA000D5AF0B0C06BF09044FF0100C4FF0000C73
:10CAB0000B0E04BF09020CF1080C0B0F04BF090197
:10CAC0000CF1040C8B0F04BF89000CF1020CCB0F8E
:10CAD00004BF49000CF1010CCCF12003A0EB0C00C9
:10CAE00022FA03F302FA0CF241EA030100F1010019
:10CAF000704720F07F4C80EA030023F07F47ACEBC7
:10CB0000070303F57C5300F0004003F1FF032DE918
:10CB100080494FEA154B09B44FEA144325EA0B4EFE
:10CB200024EA03480FF2042606EB132749083E784F
:10CB30005FEA320203FB0667C7F5000707FB06F64C
:10CB40004FEA54374FEAD64606F1020607FB066C59
:10CB5000CCF1005C4FEA1C472CEA074C07FB06F4BB
:10CB60000CFB06F504EB15464FEA961634BF002081
:10CB70004FF000404FEAD13706FB07FC4FEA1C4C50
:10CB80000CFB0BF7D21B03FB0CF761EB07010CFB53
:10CB90000EF7B0EB074072EB17420CFB08F734BFFF
:10CBA000A2EB0742B2EB074261EB17414FEA0C449C
:10CBB0004FEA910706FB07FC4FEA1C4C0CFB0BF7F6
:10CBC000B0EBC74072EB573203FB0CF734BFA2EB5C
:10CBD000C742B2EBC74261EB57310CFB0EF7B0EB2B
:10CBE000C70072EB57720CFB08F734BFA2EBC70209
:10CBF000B2EBC70261EB5771039F4FEA816141EAD3
:10CC0000921104EBCC044FEAD1374FEA826206FB63
:10CC100007FC42EA90124FEA80604FEA1C4C0CFB82
:10CC20000BF7D21B03FB0CF761EB07010CFB0EF7B4
:10CC3000B0EB074072EB17420CFB08F734BFA2EBD6
:10CC40000742B2EB074261EB17414FEA8C554FEABE
:10CC5000910704EB9C2406FB07FC4FEA1C4C0CFBE1
:10CC60000BF7B0EBC74072EB573203FB0CF734BF46
:10CC7000A2EBC742B2EBC74261EB57310CFB0EF798
:10CC8000B0EBC70072EB57720CFB08F734BFA2EB96
:10CC9000C702B2EBC70261EB577115EB4C254FEAA7
:10CCA000816141EA92114FEA82624FEAD13742EA4A
:10CCB000901206FB07FC44F100044FEA80604FEA43
:10CCC0001C4C0CFB0BF7D21B03FB0CF761EB0701B1
:10CCD0000CFB0EF7B0EB074072EB17420CFB08F7AA
:10CCE00034BFA2EB0742B2EB074261EB174115EBF1
:10CCF0001C154FEA813141EA92414FEA823242EA01
:10CD000090424FEA80304FEA0C7644F1000448EA42
:10CD100003434EEA0B484FF0000EB2EB080C71EBE8
:10CD2000030724BF624639464EEB0E0E4FF0000B50
:10CD30000018524149414BEB0B0BB2EB080C71EB65
:10CD400003077BF1000B24BF624639464EEB0E0E03
:10CD50004FF0000B0018524149414BEB0B0BB2EB6B
:10CD6000080C71EB03077BF1000B24BF62463946C8
:10CD70004EEB0E0E51EA020718BF46F0010616EB05
:10CD80000E7655F1000254F1000103D5BDE889018A
:10CD9000BDE80088BDE88901BDE80048B6195241E8
:10CDA00041EB0101A3F10103704780807F7E7D7C10
:10CDB0007B7A7978777676757473727171706F6E2D
:10CDC0006E6D6C6C6B6A6A696868676666656464D8
:10CDD000636362616160605F5F5E5E5D5D5C5C5B62
:10CDE0005B5A5A59595858575756565555555454D1
:10CDF000535352525251515050504F4F4F4E4E4D2F
:10CE00004D4D4C4C4C4B4B4B4A4A4A49494948487A
:10CE100048474747474646464545454444444443BA
:10CE200043434342424242414141002B9C4630D45D
:10CE300077002BD01CB54FEA370703B44FF0100032
:10CE40004FF01001BAF1000F06D0BCF1000FDCBFAB
:10CE500040F0080040F008014FF000000FBCBDE8B2
:10CE600010400BF1010BBBF1010F08BF5FEA170780
:10CE700022BF12F1010211F101014FF0004143F113
:10CE8000000300F0004043EA00007047F9D3570860
:10CE9000D0E746EA064613F1400F4FEA16461FDD7B
:10CEA00013F1200FDFBF16430A46002120335B42F7
:10CEB000BED0C3F1200746EA064602FA07F74FEA5A
:10CEC000164646EA0706C3F1200722FA03F201FAE2
:10CED00007F721FA03F14FF0000342EA0702A7E740
:10CEE00046EA020646EA06464FEA164646EA0106C2
:10CEF000BCBF46EA0646360C4FF000034FF0000276
:10CF00004FF0000194E72DE9804C9A46934670B4A7
:10CF100091E8380007C831EA400C48BF34EA430CB6
:10CF200003D5FFF7E6FDFFF780FFF0BCBDE8008CFE
:10CF30002DE9804C9A46934670B491E8380007C8B2
:10CF400010F0804F08BF13F0804F03D100F005F8B8
:10CF5000FFF76BFFF0BCBDE8008C20F07F4780EA54
:10CF6000030023F07F4C07EB0C03A3F57C5300F088
:10CF70000040A3F1FE0392F0000F00F0B38095F0A3
:10CF8000000F00F077802DE901494FEA11404FEA88
:10CF9000144621EA004800FB06FC24EA064708FB89
:10CFA00006F607FB08F800FB07F718EB06484CEB02
:10CFB000164C4FEA124B18EB07484FEA15464CEB5C
:10CFC000174022EA0B4E0BFB06FC25EA06470EFB38
:10CFD00006F607FB0EFE0BFB07F71EEB064E4CEBAF
:10CFE000164C4FF000061EEB074E4CEB174B18EBA0
:10CFF0000B0840F1000018EB0E0B58EB000840F155
:10D0000000008F1A4FF000013CBFC943661B14BFDC
:10D01000B5EB040C00213CBFC943F61B4FEA174493
:10D020004EEA8E0E27EA04454FEA1C4704FB0762CE
:10D030002CEA074C05FB07F70CFB05F604FB0CFC80
:10D0400016EB074642EB174216EB0C4642EB1C422E
:10D050001BEB060658EB0202414146EA9E0601D54B
:10D06000BDE80189B619524141EB0101A3F1010369
:10D07000BDE801894FEA14454FEA114724EA054605
:10D0800021EA074C05FB07F406FB07F70CFB06F14A
:10D0900005FB0CFC11EB074144EB17444FEA124728
:10D0A00011EB0C4144EB1C4422EA074C05FB07F250
:10D0B00006FB07F70CFB06F605FB0CFC16EB074618
:10D0C00042EB174216EB0C4642EB1C456A1854F132
:10D0D000000148BF7047B619524141EB0101A3F16D
:10D0E0000103704795F0000F37D04FEA11424FEA25
:10D0F000144721EA024624EA074C02FB07F106FB2B
:10D1000007F70CFB06F402FB0CFC14EB074441EBA5
:10D1100017414FEA154714EB0C4441EB1C4125EA3B
:10D12000074C02FB07F506FB07F70CFB06F602FBB4
:10D130000CFC16EB074645EB174516EB0C4645EB8A
:10D140001C42121951F1000148BF7047B6195241F3
:10D1500041EB0101A3F1010370474FEA14454FEA87
:10D16000114724EA054621EA074C05FB07F106FBB7
:10D1700007F70CFB06F24FF0000605FB0CFC12EB68
:10D18000074241EB174112EB0C4251EB1C4148BFE7
:10D190007047921841EB0101A3F10103704770B58C
:10D1A000044600252068806800F0010018B320685C
:10D1B000806820F001002168886001F05FFE05466C
:10D1C00013E001F05BFE401B02280ED92068806846
:10D1D00000F0010048B1A06A40F01000A062E06ACF
:10D1E00040F00100E062012070BD2068806800F01E
:10D1F00001000028E5D10020F6E770B505466C6A0D
:10D20000A06A00F05000E0B9A06A40F40070A0628B
:10D210002068806800F46020B0F5602F0DD1207B7D
:10D2200058B9A06A20F48070A062A06A00F480500F
:10D2300018B9A06A40F00100A062204600F094FAFC
:10D2400003E0206A016B2846884770BD70B505462B
:10D250006C6AA06A40F04000A062E06A40F00400FE
:10D26000E062204600F035FB70BD70B50446656A8B
:10D27000284600F02DFB70BD38B50446002500207F
:10D2800000902068806800F0010078BB206880680A
:10D2900040F0010021688860194800681949B0FB16
:10D2A000F1F0009002E00098401E009000980028E5
:10D2B000F9D101F0E3FD054619E001F0DFFD401B67
:10D2C000022814D92068806800F0010078B9A06AAB
:10D2D00040F01000A062E06A40F00100E06200BF90
:10D2E000002084F8240000BF012038BD05E020683C
:10D2F000806800F001000028DFD00020F5E7000082
:10D30000F800002040420F0000BFFEE710B50248C1
:10D3100001F06CF810BD00006814002010B5024840
:10D3200001F064F810BD00001C28002010B5024870
:10D3300001F05CF810BD00006028002010B5024824
:10D3400001F054F810BD0000AC14002030B590F886
:10D3500040500124AC40C56B6C6004686360446855
:10D36000102C04D10468A2600468E16003E0046842
:10D37000A1600468E26030BD704710B54FF4805082
:10D3800001F0C8FB10BD72B600BFFEE70021074ADE
:10D39000D1610749096941F00401054A116111464B
:10D3A000096941F04001116170470000000100204F
:10D3B000002002400021074AD1610749096941F074
:10D3C0000201054A116111464861096941F04001B5
:10D3D0001161704700010020002002400022054B2F
:10D3E000DA61054A126942F00102034B1A610180B9
:10D3F00070470000000100200020024000201E496C
:10D40000C96801F0100139B11C49C96941F0020134
:10D410001A4AD16140F010001749C96801F00401AF
:10D4200039B11649C96941F00101144AD16140F08E
:10D4300004001149C96901F0010169B10F49C969C5
:10D4400041F004010D4AD16100BF0B49C96921F0C7
:10D450000101094AD16100BF00BF40F201118842B9
:10D4600006D10549C96921F00101034AD16101E0F2
:10D470000149C86000BF7047002002400001002041
:10D4800070B5044601F0FAFC054609E0601C38B1AD
:10D4900024B101F0F3FC401BA04201D9032070BD70
:10D4A0001248C06800F001000028EFD10F48C068A2
:10D4B00000F0200020B100BF20200C49C86000BF50
:10D4C0000A48C06800F0100048B90848C06900F078
:10D4D000010020B90548C06800F0040018B1FFF74A
:10D4E0008DFF0120DBE70020D9E70000002002408B
:10D4F000F8B5044600260020009000BF94F82400F0
:10D50000012801D10220F8BD012084F8240000BFC9
:10D510002046FFF744FE0646002E6CD1A06A20F498
:10D52000885040F00200A062022001F0B5FD3549AC
:10D530000968B1FBF0F04000009002E00098401E46
:10D54000009000980028F9D12046FFF795FE20684A
:10D55000806840F008002168886001F08FFC054673
:10D5600016E001F08BFC401B0A2811D92068806866
:10D5700000F0080060B1A06A20F0020040F0100046
:10D58000A06200BF002084F8240000BF0120BAE799
:10D590002068806800F008000028E2D120688068D8
:10D5A00040F004002168886001F068FC054616E040
:10D5B00001F064FC401B0A2811D92068806800F043
:10D5C000040060B1A06A20F0020040F01000A062E8
:10D5D00000BF002084F8240000BF012093E72068EA
:10D5E000806800F004000028E2D1A06A20F0020068
:10D5F00040F00100A06200BF002084F8240000BFBA
:10D60000304680E7F800002038B5024600230020AD
:10D61000009000BF92F82400012801D1022038BDFB
:10D62000012082F8240000BF4868072812D2106841
:10D63000406B0C79641E04EB84051F24AC40A043AE
:10D640000D796D1E05EB85050C68AC402043146810
:10D65000606327E048680D2812D21068006B0C79CF
:10D66000E41F04EB84051F24AC40A0430D79ED1F9B
:10D6700005EB85050C68AC4020431468206311E07D
:10D680001068C06A0C790D3C04EB84051F24AC4083
:10D69000A0430D790D3D05EB85050C68AC4020439A
:10D6A0001468E06208680A2812D31068C0680C7811
:10D6B0000A3C04EB44050724AC40A0430D780A3D26
:10D6C00005EB45058C68AC4020431468E0600FE032
:10D6D000106800690C7804EB44050724AC40A043B3
:10D6E0000D7805EB45058C68AC402043146820613B
:10D6F0000868102802D00868112827D1174C106834
:10D70000A0421ED11068806800F40000F0B91068D3
:10D71000806840F400001468A0600868102815D1E3
:10D720000F4800680F4CB0FBF4F000EB80004000A5
:10D73000009002E00098401E009000980028F9D167
:10D7400004E0906A40F020009062012300BF0020B6
:10D7500082F8240000BF184661E700000024014061
:10D76000F800002040420F007FB504464E48844236
:10D7700003D101204D49087094E04D488442FBD10B
:10D780004C4800884C4908804A48408848804948AD
:10D79000808888804748C088C880484890F821031E
:10D7A000012831D1454890F8200300287AD1084655
:10D7B00001884248424A128820F832103E48408888
:10D7C0003E493F4A128801EBC20148803A488088AE
:10D7D0003A493B4A128801EBC20188803648C18829
:10D7E0003648374A128800EBC200C18034480088AE
:10D7F000401C3349088008460088642852D1012023
:10D800002E4981F820034DE02C4890F8210302288E
:10D8100027D12C4800682C490968884242D2234805
:10D82000408828490A6800232849C969224DCDE962
:10D83000013200910390EB88AA886988288804F057
:10D84000A1FF20480068401C1E4908600846006887
:10D850001D490968884225D10120184981F8200313
:10D8600020E0164890F8210304281BD115480068D1
:10D8700015490968884215D20F4A51881088114A03
:10D88000126804F095FF0F480068401C0D490860BD
:10D89000084600680C490968884203D101200749FD
:10D8A00081F820037FBD0000381400202C010020E7
:10D8B000081400201400002028000020FE01002091
:10D8C0001C0000202400002020000020D81300208D
:10D8D0007047704701460868C06C70472DE9F041F9
:10D8E0000446002700250026A84614B90120BDE8FB
:10D8F000F081A06810B1207D00B100BFA06A30B9EE
:10D900000020E06284F82400204600F097F82046CA
:10D91000FFF745FC0746A06A00F01000002873D10D
:10D92000002F7ED1A06A20F4885040F00200A0624F
:10D930003F4AD4E90001904208D1E069B0F5402F98
:10D9400002D14FF4002002E0E06900E0E069014309
:10D95000207B41EA40000643A068B0F5807F02D0FA
:10D96000A068012802D14FF4807000E00020054338
:10D97000207D012811D1207B38B9A069401E4FF4C9
:10D98000006141EA4030054307E0A06A40F0200012
:10D99000A062E06A40F00100E0622068406820F484
:10D9A0006940284321684860206880682149084010
:10D9B000304321688860A068B0F5807F02D0A068FD
:10D9C000012802D14FF4807000E00020B0F5807F84
:10D9D00003D1208A401E4FEA00582068C06A20F414
:10D9E000700040EA08002168C86220688068124917
:10D9F0000840B04209D10020E062A06A20F0020095
:10DA000040F00100A06211E00BE0A06A20F00200EB
:10DA100040F01000A062E06A40F00100E0620127DF
:10DA200004E0A06A40F01000A062012738465EE7DB
:10DA3000003C0140FDF7E1FFFE0E1FFF10B586B070
:10DA400004460020029003900490059054492068F9
:10DA5000884261D100BF5348806940F40070514949
:10DA600088610846806900F40070019000BF00BF23
:10DA700000BF0846806940F004008861084680695C
:10DA800000F00400019000BF00BF00BF084680699D
:10DA900040F0100088610846806900F01000019095
:10DAA00000BF00BF4048007801282CD1C020029060
:10DAB0000320039002A93D4801F03AF8302002907B
:10DAC0000320039002A93A4801F032F839483A4954
:10DAD0000860002048600021374881608021C160D3
:10DAE0004900016189004161202181614FF4405169
:10DAF000C16100F047FE08B1FFF745FC00BF2E48AA
:10DB0000206244624AE0302002900320039002A980
:10DB1000264801F00DF841E02849206888423DD1AF
:10DB200000BF2048806940F400401E4988610846D3
:10DB3000806900F40040019000BF00BF00BF0846AC
:10DB4000806940F0040088610846806900F00400A4
:10DB5000019000BF00BF022002900320039002A9A1
:10DB6000124800F0E5FF164816490860002048609A
:10DB70000021144881608021C16049000161890051
:10DB8000416100218161C16100F0FCFD08B1FFF736
:10DB9000FAFB00BF0B482062446200BF06B010BD14
:10DBA0000024014000100240A42800200008014089
:10DBB000001001400800024068140020003C0140B1
:10DBC00058040240AC140020F8B504460D46002667
:10DBD00000200090002701F051F906462068806877
:10DBE00000F4807050B1A06A40F02000A06200BF35
:10DBF000002084F8240000BF0120F8BD20684068A0
:10DC000000F4807020BB2068C06A00F47000F8B98E
:10DC100017E0681CA8B125B101F030F9801BA842BB
:10DC20000FD92068006800F0020050B9A06A40F0E7
:10DC30000400A06200BF002084F8240000BF03207D
:10DC4000DBE72068006800F002000028E1D053E024
:10DC5000022001F021FA38490968B1FBF0F021688F
:10DC60000969364A114091B92168C9689211114079
:10DC700069B921680969324A114031B92168C96816
:10DC80009211114009B9142117E0292115E02168EA
:10DC900009692B4A114021B92168C96892111140C4
:10DCA00041B121680969274A114029B92168C96829
:10DCB000114009B9542100E0FC2100FB01F718E0F4
:10DCC000681C98B125B101F0D9F8801BA8420DD984
:10DCD0000098B8420AD2A06A40F00400A06200BFD7
:10DCE000002084F8240000BF032086E70098401C31
:10DCF00000900098B842E3D36FF0120021680860EA
:10DD0000A06A40F40070A0622068806800F460207F
:10DD1000B0F5602F0DD1207B58B9A06A20F4807037
:10DD2000A062A06A00F4805018B9A06A40F0010017
:10DD3000A062002061E70000F8000020244992243E
:10DD4000922449124992240070B50446002500BF70
:10DD500094F82400012801D1022070BD012084F82C
:10DD6000240000BF2046FFF787FA0546002D77D133
:10DD7000A06A40F20121884340F48070A0623C49CF
:10DD80002068884208D13B48006800F4702008B938
:10DD9000012002E0002000E0012078B1A06A20F418
:10DDA0008010A0622068406800F4806000B3A06A20
:10DDB00020F4005040F48050A06219E0A06A40F4C2
:10DDC0008010A0622B49091F2068884203D028498F
:10DDD0002068884204D12748006800F4806000E091
:10DDE000002028B1A06A20F4005040F48050A062C6
:10DDF000A06A00F4805020B1E06A20F00600E062E2
:10DE000001E00020E06200BF002084F8240000BF91
:10DE1000C01E216808602068806800F46020B0F5AA
:10DE2000602F16D112492068884208D11148006835
:10DE300000F4702008B9012002E0002000E0012079
:10DE400038B12068806840F4A000216888600CE048
:10DE500006E02068806840F480102168886004E053
:10DE600000BF002084F8240000BF284675E70000AA
:10DE700000280140042401402DE9F04104460D46EC
:10DE80001646002757492068884203D05649206823
:10DE9000884205D15348001D006800F4702000E05E
:10DEA000002000287ED100BF94F82400012802D170
:10DEB0000220BDE8F081012084F8240000BF204644
:10DEC000FFF7DAF90746002F6DD1A06A40F601612D
:10DED000884340F48070A06243492068884209D199
:10DEE0004048001D006800F4702008B9012002E0DD
:10DEF000002000E0012078B1A06A20F48010A06228
:10DF00002068406800F4806000B3A06A20F40050EC
:10DF100040F48050A06219E0A06A40F48010A06232
:10DF200030492068884203D02F492068884205D1B3
:10DF30002C48001D006800F4806000E0002028B13B
:10DF4000A06A20F4005040F48050A062A06A00F45F
:10DF5000805020B1E06A20F00600E06201E000207D
:10DF6000E06200BF002084F8240000BF1F48216A3F
:10DF700088621F48216AC8621E48216A08636FF0E0
:10DF80000200216808602068806840F48070216881
:10DF90008860226802F14C0133462A46206A00F06C
:10DFA00037FC01E01AE014E02068806800F460208B
:10DFB000B0F5602F06D12068806840F4A000216889
:10DFC00088600CE02068806840F4801021688860D8
:10DFD00005E000BF002084F8240000E00127384657
:10DFE00067E700000024014000280140FBD1000841
:10DFF0006BD200084DD2000870B50446002500BF62
:10E0000094F82400012801D1022070BD012084F879
:10E01000240000BF2046FFF7C2F805462DB9A06ACC
:10E0200020F4885040F00100A06200BF002084F876
:10E03000240000BF2846E8E7F0B5034600BF587942
:10E04000012801D10220F0BD0120587100BF02203B
:10E0500018711868046802F0100640F6FE70B040AF
:10E060008443D1E9000640EA060502F0100005FAF3
:10E0700000F00443186804601868006802F0100794
:10E08000C026BE40B0431E6830600120187100BF3A
:10E090000020587100BF00BFD5E710B504460CB989
:10E0A000012010BD207920B900206071204600F0C9
:10E0B00009F8022020710020206101202071002039
:10E0C000EFE7000010B586B00446002002900390F0
:10E0D0000490059016492068884226D100BF154853
:10E0E000C06940F000501349C8610846C06900F09B
:10E0F0000050019000BF00BF00BF0846806940F09B
:10E10000040088610846806900F00400019000BFA7
:10E1100000BF09480078012807D130200290032071
:10E12000039002A9054800F003FD06B010BD0000F1
:10E130000074004000100240A428002000080140A4
:10E1400038B50446002000902068009029B902F1FB
:10E150000800009D2844009004E002F11400009D96
:10E160002844009000980360002038BD10B5024696
:10E1700000BF5079012801D1022010BD012050714B
:10E1800000BF022010711068006801F01004012324
:10E19000A34018431368186061B91068006800F064
:10E1A0003C003C2816D11068406840F0010013681C
:10E1B00058600FE01068006800F4701301F010045C
:10E1C0003C20A040834205D11068406840F0020026
:10E1D000136858600120107100BF0020507100BF0B
:10E1E00000BFCAE70146002291F82100022808D0AA
:10E1F0000420886300BF002081F8200000BF0120B8
:10E2000070470868006820F00E000B681860086806
:10E21000006820F001000B68186091F84030012080
:10E220009840CB6B5860012081F8210000BF00208E
:10E2300081F8200000BF1046E2E7000070B50446F8
:10E24000002594F82100022803D00420A0630125B2
:10E25000C1E02068006820F00E0021680860206896
:10E26000006820F00100216808605C49206888424D
:10E2700052D95A4978392068884201D1012047E0B3
:10E28000564964392068884201D1102040E0534942
:10E2900050392068884201D1801539E04F493C3916
:10E2A0002068884201D1801432E04C492839206826
:10E2B000884202D14FF480302AE04849143920685E
:10E2C000884202D14FF4801022E0444920688842FD
:10E2D00001D140041CE042492068884201D101205C
:10E2E00016E03F4914312068884201D110200FE028
:10E2F0003B4928312068884201D1801508E038491F
:10E300003C312068884201D1801401E04FF4803014
:10E310003349091F086051E0304978392068884244
:10E3200001D1012047E02D4964392068884201D19C
:10E33000102040E0294950392068884201D18015D9
:10E3400039E026493C392068884201D1801432E006
:10E35000224928392068884202D14FF480302AE0CF
:10E360001E4914392068884202D14FF4801022E0FF
:10E370001A492068884201D140041CE018492068ED
:10E38000884201D1012016E01549143120688842E5
:10E3900001D110200FE0124928312068884201D1B4
:10E3A000801508E00E493C312068884201D1801474
:10E3B00001E04FF48030094980394860012084F839
:10E3C000210000BF002084F8200000BF606B10B166
:10E3D0002046616B8847284670BD000080000240DF
:10E3E000080402400146886B7047000070B504467F
:10E3F000E06B05682068066894F8401004208840A7
:10E400002840002875D006F004000028FAD02068C3
:10E41000006800F0200028B92068006820F004009F
:10E4200021680860D5492068884254D9D349783991
:10E430002068884201D1042049E0D049643920682D
:10E44000884201D1402042E0CC49503920688842BE
:10E4500001D100153BE0C9493C392068884202D10E
:10E460004FF4804033E0C54928392068884202D102
:10E470004FF480202BE0C14914392068884202D132
:10E480004FF4800023E0BD492068884201D1C004D8
:10E490001DE0BB492068884201D1042017E0B8493B
:10E4A00014312068884201D1402010E0B44928315D
:10E4B0002068884201D1001509E0B1493C3120684B
:10E4C000884202D14FF4804001E04FF48020AC49F3
:10E4D000091F086054E0A94978392068884201D1B1
:10E4E00004204AE0A54964392068884202D14020CE
:10E4F00043E04CE0A14950392068884201D1001521
:10E500003BE09E493C392068884202D14FF480406C
:10E5100033E09A4928392068884202D14FF480209C
:10E520002BE0964914392068884202D14FF48000CC
:10E5300023E092492068884201D1C0041DE090493F
:10E540002068884201D1042017E08D4914312068E9
:10E55000884201D1402010E0894928312068884252
:10E5600001D1001509E086493C312068884202D17A
:10E570004FF4804001E04FF48020804980394860AA
:10E58000E06A002802D02046E16A8847F4E094F867
:10E590004010022088402840002871D006F0020078
:10E5A0000028FAD02068006800F0200040B92068F8
:10E5B000006820F00A0021680860012084F821002A
:10E5C0006E492068884254D96C497839206888425D
:10E5D00001D1022049E0694964392068884201D1AB
:10E5E000202042E0654950392068884201D1401519
:10E5F0003BE062493C392068884202D14FF4005028
:10E6000033E05E4928392068884202D14FF4003057
:10E610002BE05A4914392068884202D14FF4001087
:10E6200023E056492068884201D180041DE0544906
:10E630002068884201D1022017E051491431206836
:10E64000884201D1202010E04D49283120688842BD
:10E6500001D1401509E04A493C312068884202D185
:10E660004FF4005001E04FF400304549091F0860A5
:10E6700054E0424978392068884202D102204AE0B9
:10E6800057E03E4964392068884201D1202042E0A9
:10E690003A4950392068884201D140153BE037495A
:10E6A0003C392068884202D14FF4005033E03349AE
:10E6B00028392068884202D14FF400302BE02F49DE
:10E6C00014392068884202D14FF4001023E02B490E
:10E6D0002068884201D180041DE0294920688842D1
:10E6E00001D1022017E0264914312068884201D167
:10E6F000202010E0224928312068884201D14015AD
:10E7000009E01F493C312068884202D14FF4005093
:10E7100001E04FF4003019498039486000BF002003
:10E7200084F8200000BFA06A30B32046A16A884761
:10E7300022E094F84010082088402840E0B106F01C
:10E740000800C8B12068006820F00E002168086049
:10E7500094F8401001208840E16B48600120A063DC
:10E7600084F8210000BF002084F8200000BF206B47
:10E7700010B12046216B884770BD00008000024028
:10E78000080402400146002209B9012070471E4BCF
:10E79000086898420BD21D4B0868C01A1423B0FBBE
:10E7A000F3F08000086419480838C8630AE0164B83
:10E7B0000868C01A1423B0FBF3F080000864124804
:10E7C0000838C863022081F821000868026843F60F
:10E7D000F0708243D1E901031843CB6818430B69F9
:10E7E00018434B6918438B691843CB69184302439C
:10E7F0000868026000208863012081F82100002061
:10E8000081F8200000BFC1E7080402400800024070
:10E810002DE9F04104460D4616461F464FF000080C
:10E8200000BF94F82000012802D10220BDE8F08149
:10E83000012084F8200000BF94F8210001282CD189
:10E84000022084F821000020A0632068006820F0E6
:10E850000100216808603B46324629462046FEF703
:10E8600075FDE06A30B12068006840F00E00216854
:10E8700008600BE02068006820F004002168086050
:10E880002068006840F00A0021680860206800687D
:10E8900040F001002168086006E000BF002084F815
:10E8A000200000BF4FF002084046BFE770B50446A5
:10E8B00000F0E4FA06462546681C10B104480078CA
:10E8C000054400BF00F0DAFA801BA842FAD370BDFD
:10E8D000080000202DE9F04104460E4601270025DE
:10E8E00000BF2648007E012802D10220BDE8F08149
:10E8F00001202249087600BF2068022813D14CF27B
:10E900005030FEF7BDFD90BB0120FEF73FFD4CF2FD
:10E910005030FEF7B5FD07461948006920F00400A5
:10E920001749086123E04CF25030FEF7A9FDF0B919
:10E930004FF0FF303060A56812E02846FEF73AFD40
:10E940004CF25030FEF79CFD07460D48006920F060
:10E9500002000B4908610FB1356007E005F500655D
:10E96000D4E9021001EBC020A842E6D800BF00BFE6
:10E9700000200249087600BF3846B7E700010020B2
:10E98000002002400148C0697047000000010020DB
:10E990000348006940F08000014908610020704789
:10E9A000002002402DE9FE4F05468B46174698464B
:10E9B000012600240020029000BF2448007E012888
:10E9C00002D10220BDE8FE8F01202049087600BF59
:10E9D0004CF25030FEF754FD064686BB012D02D1A5
:10E9E0000120029006E0022D02D10220029001E0F7
:10E9F0000420029000241EE02201B946C246484687
:10EA00005146FCF7B3FC80B20190022000FB04B039
:10EA100000900199FEF7E2FC4CF25030FEF730FD19
:10EA200006460B48006920F001000949086106B15B
:10EA300004E0601CC4B202988442DDDB00BF00BF6A
:10EA400000200249087600BF3046BBE700010020E5
:10EA50000020024000200849096901F0800151B1FD
:10EA60000649054A5160064951601146096901F09D
:10EA7000800101B101207047002002402301674559
:10EA8000AB89EFCDB0F5805F3AD11E49096801F43A
:10EA90008051C1B11C4A126811680A6842F4807240
:10EAA0000A60194A126811680A6822F040020A6076
:10EAB0001549897C19B10221134A82F820100021DE
:10EAC000114A91741CE0104A126811680A6822F415
:10EAD00080720A600C4A126811680A6842F04002AB
:10EAE0000A600121084A9174114689680978126800
:10EAF0001268D1600021054A11800121044A118069
:10EB000070470000080C014048160020D800002083
:10EB1000D600002010B5044604480068204020B10B
:10EB2000024804602046FFF7ADFF10BD1404014009
:10EB30002DE9F847024600239C467BE14FF001088F
:10EB400008FA03F4D1F8008008EA0400A0427DD15D
:10EB5000DFF8F4A2D1F80480A8EB0A09D0453AD036
:10EB600014DCB8F1030F50D009DCB8F1000F31D03C
:10EB7000B8F1010F1CD0B8F1020F49D120E0B8F173
:10EB8000110F18D0B8F1120F42D11EE0B9F5881F4D
:10EB900025D006DCB9F5803F20D0B9F5801F37D1EC
:10EBA0001AE0B9F5001F18D0B9F5041F30D117E0ED
:10EBB000D1F80CC02DE0D1F80C8008F1040C28E04D
:10EBC000D1F80C8008F1080C23E0D1F80C8008F192
:10EBD0000C0C1EE000BF00BF00BF00BF00BF00BFA5
:10EBE000D1F80880B8F1000F02D14FF0040C0BE00F
:10EBF000D1F80880B8F1010F03D14FF0080C14616F
:10EC000002E04FF0080C546103E04FF0000C00E00C
:10EC100000BF00BFFF2801D8904601E002F10408C0
:10EC20004646FF2802D84FEA830803E0A3F108080C
:10EC30004FEA88084746D6F800804FF00F0909FAD6
:10EC400007F928EA09080CFA07F900E07AE048EA2F
:10EC50000908C6F80080D1F8048008F08058B8F19F
:10EC6000805F6FD100BFDFF8E481D8F8188048F0EA
:10EC70000108DFF8D891C9F81880C846D8F818807C
:10EC800008F00108CDF8008000BF00BF4FEAB93896
:10EC90004FEA930958F829504FEA83784FEA1879D8
:10ECA0004FF00F0808FA09F825EA0805DFF8A081F7
:10ECB000424502D14FF0000824E0DFF89881424538
:10ECC00002D14FF001081DE0DFF88C81424502D1EE
:10ECD0004FF0020816E0DFF88481424502D14FF080
:10ECE00003080FE0DFF87881424502D14FF00408B5
:10ECF00008E0DFF87081424502D14FF0050801E0DD
:10ED00004FF006084FEA83794FEA197908FA09F8B3
:10ED100048EA0505DFF850814FEA930948F8295081
:10ED2000D1F8048008F48038B8F5803F0BD1DFF8C3
:10ED30003C81D8F8008048EA0008DFF83091C9F833
:10ED400000800AE075E0DFF82481D8F8008028EA26
:10ED50000008DFF81891C9F80080D1F8048008F4A1
:10ED60000038B8F5003F0ED1DFF8008108F1040843
:10ED7000D8F8008048EA0008DFF8F09009F10409AB
:10ED8000C9F800800DE0DFF8E48008F10408D8F845
:10ED9000008028EA0008DFF8D49009F10409C9F8D6
:10EDA0000080D1F8048008F48018B8F5801F0ED1D7
:10EDB000DFF8B88008F10808D8F8008048EA0008B1
:10EDC000DFF8A89009F10809C9F800800DE0DFF824
:10EDD0009C8008F10808D8F8008028EA0008DFF8CD
:10EDE0008C9009F10809C9F80080D1F8048008F472
:10EDF0000018B8F5001F0ED1DFF8708008F10C087C
:10EE0000D8F8008048EA0008DFF8609009F10C09A2
:10EE1000C9F800800DE0DFF8548008F10C08D8F83C
:10EE2000008028EA0008DFF8449009F10C09C9F8CD
:10EE300000805B1CD1F8008028FA03F8B8F1000FBD
:10EE40007FF47CAEBDE8F88700001110001002408E
:10EE500000080140000C0140001001400014014076
:10EE600000180140001C014008000140000401405E
:10EE70000AB1016101E00B040361704701480068B9
:10EE8000704700000000002070B504460CB9012056
:10EE900070BD4CF6CC402168086045F255502168A1
:10EEA0000860D4E9001048602168A0688860FFF716
:10EEB000E5FF05460BE0FFF7E1FF401B272806D9D9
:10EEC0002068C06800F0030008B10320E0E7206874
:10EED000C06800F003000028EDD14AF6AA2021689E
:10EEE00008600020D4E701464AF6AA200A681060AC
:10EEF0000020704703480068034909780844014925
:10EF000008607047000000200800002010B5084885
:10EF1000006840F0100006490860032000F0A8F8DF
:10EF20000F2000F007F800F02BF8002010BD0000C3
:10EF30000020024070B504460E4800784FF47A7104
:10EF4000B1FBF0F00C490968B1FBF0F5284600F080
:10EF50003DFF08B1012070BD102C07D200222146D0
:10EF6000501E00F047F80548046001E00120F2E778
:10EF70000020F0E708000020F80000200400002036
:10EF800008B500BF1148806940F001000F49886151
:10EF90000846806900F00100009000BF00BF00BF7C
:10EFA0000846C06940F08050C8610846C06900F05A
:10EFB0008050009000BF00BF00BF0549486820F0A6
:10EFC000E06040F00070486000BF08BD00100240E3
:10EFD0000000014001460846002809DB00F01F033D
:10EFE00001229A4043099B0003F1E023C3F800216A
:10EFF00000BF70472DE9F05F80460D46164600279A
:10F0000002F07CFF074639462A46334601F00700E6
:10F01000C0F1070ABAF1040F02D94FF0040A01E067
:10F02000C0F1070AD14600F1040ABAF1070F02D273
:10F030004FF0000A01E0A0F1030AD4464FF0010AA4
:10F040000AFA09FAAAF1010A0AEA020A0AFA0CFA09
:10F050004FF0010B0BFA0CFBABF1010B0BEA030BAE
:10F060004AEA0B042146404602F050FFBDE8F09FFB
:10F0700000BF00F00702064B19684FF6FF03194066
:10F08000044B0B4343EA0221014B196000BF704758
:10F090000CED00E00000FA052DE9F04385B00646CE
:10F0A00042A30FCB01AC0FC444A0006800904FF006
:10F0B0000008002500270024A146042E36D004DCD9
:10F0C000012E3BD0022E6BD15FE0082E32D0102EE5
:10F0D00066D13B484468006800F0807000B301A826
:10F0E000C4F38341475C04F4803070B13448406815
:10F0F000C0F340401DF8008004F4803040B1314836
:10F10000B0FBF8F000FB07F502E02F4807FB00F525
:10F110002B48406800F48000B0F5800F01D1A9466B
:10F1200003E068000321B0FBF1F93AE000F0D2F906
:10F13000814636E000F0CEF9814632E02048046A8C
:10F1400004F44070B0F5807F05D104F0020010B1E6
:10F150004FF4004918E004F44070B0F5007F07D187
:10F160001748406A00F0020010B149F640490BE030
:10F1700004F44070B0F5407F06D11148006800F4F7
:10F18000003008B14FF224490BE000F093F90C492C
:10F190004968C1F38131491C4900B0FBF1F900E035
:10F1A00000BF00BF484605B0BDE8F0830203040578
:10F1B000060708090A0B0C0D0E0F101001020000C3
:10F1C0000010024000127A0000093D00F8B5044624
:10F1D00000260025207800F0010000286BD00027D1
:10F1E0004348C06900F0805070B900BF4048C06912
:10F1F00040F080503E49C8610846C06900F0805028
:10F20000009000BF00BF01273A48006800F48070FA
:10F21000B0B93848006840F4807036490860FFF79C
:10F220002DFE064606E0FFF729FE801B642801D963
:10F230000320F8BD2F48006800F480700028F2D049
:10F240002B48006A00F440752DB3A08800F440708C
:10F25000A84220D02648006A20F4407501202649A3
:10F260000860002008602248056205F0010090B1A6
:10F27000FFF704FE064608E0FFF700FE801B41F2A0
:10F280008831884201D90320D3E71948006A00F089
:10F2900002000028F0D01648006A20F4407061682F
:10F2A000084313490862012F04D10846C06920F0C1
:10F2B0008050C86100BF207800F00200022807D10A
:10F2C0000B48406820F44040A16808430849486062
:10F2D000207800F01000102807D10548406820F47D
:10F2E000800061690843024948600020A1E70000EE
:10F2F00000100240007000404004424270B50446D5
:10F300000D460CB9012070BD5A48006800F0070096
:10F31000A8420ED25748006820F0070028435549FC
:10F3200008600846006800F00700A84201D00120EC
:10F33000E9E7207800F0020002281DD1207800F0D3
:10F340000400042805D14C48406840F4E0604A4974
:10F350004860207800F00800082805D14648406839
:10F3600040F46050444948604348406820F0F00051
:10F37000A168084340494860207800F0010078B354
:10F380006068012806D13C48006800F4003090B95C
:10F390000120B8E76068022806D13748006800F00D
:10F3A000007040B90120AEE73348006800F0020069
:10F3B00008B90120A7E73048406820F003006168E1
:10F3C00008432D494860FFF759FD064609E0FFF75D
:10F3D00055FD801B41F28831884202D9032092E713
:10F3E00007E02548406800F00C006168B0EB810F31
:10F3F000EDD12048006800F00700A8420ED91D4852
:10F40000006820F0070028431A4908600846006891
:10F4100000F00700A84201D0012074E7207800F036
:10F420000400042807D11448406820F4E060E16833
:10F43000084311494860207800F00800082808D1E6
:10F440000D48406820F46050216940EAC1000A4933
:10F45000486000F03FF808494968C1F30311074AC2
:10F46000515CC8400649086006480068FFF762FD25
:10F47000002048E7002002400010024044910108AB
:10F48000F8000020040000200148006870470000D8
:10F49000F800002000B5FFF7F7FF04494968C1F301
:10F4A0000221034A515CC84000BD00000010024028
:10F4B0005491010800B5FFF7E7FF04494968C1F31B
:10F4C000C221034A515CC84000BD00000010024048
:10F4D00054910108F0B585B00FF26C0C9CE8E01077
:10F4E00001A8A0E8E0101CA52D68009500210022CD
:10F4F000002300240020194D696801F00C05F5B1C6
:10F50000042D02D0082D19D101E0154819E001ADF4
:10F51000C1F38346AC5D01F4803555B10F4D6D6884
:10F52000C5F340451DF805200D4D6543B5FBF2F3CD
:10F5300002E00C4D04FB05F3184602E000BF08484A
:10F5400000BF00BF05B0F0BD0203040506070809AF
:10F550000A0B0C0D0E0F10100102000000100240EB
:10F5600000127A0000093D00F8B504460CB90120EC
:10F57000F8BD207800F00100002878D0F8484068F5
:10F5800000F00C0004280CD0F548406800F00C0096
:10F59000082811D1F248406800F48030B0F5803F6F
:10F5A0000AD1EF48006800F4003000285FD060689E
:10F5B00000285CD10120DBE700BF6068B0F5803F28
:10F5C00006D1E748006840F48030E549086028E04B
:10F5D000606858B9E248006820F48030E04908606B
:10F5E0000846006820F4802008601AE06068B0F5E2
:10F5F000A02F0BD1DA48006840F48020D849086079
:10F600000846006840F4803008600AE0D44800688A
:10F6100020F48030D24908600846006820F4802039
:10F62000086000BF606888B1FFF728FC054606E067
:10F63000FFF724FC401B642801D9032098E7C84841
:10F64000006800F400300028F2D010E0FFF716FC4C
:10F65000054606E0FFF712FC401B642801D9032091
:10F6600086E7BF48006800F400300028F2D1207817
:10F6700000F00200022857D1B948406800F00C00A1
:10F6800050B1B748406800F00C00082818D1B448C1
:10F69000406800F4803098B9B148006800F002007A
:10F6A00020B12069012801D0012061E7AC48006841
:10F6B00020F0F800616940EAC100A949086033E020
:10F6C0002069E8B10120A7490860FFF7D7FB05468C
:10F6D00006E0FFF7D3FB401B022801D9032047E7D0
:10F6E0009F48006800F002000028F2D09C480068A3
:10F6F00020F0F800616940EAC1009949086013E010
:10F70000002098490860FFF7B9FB054606E0FFF7BF
:10F71000B5FB401B022801D9032029E79048006867
:10F7200000F002000028F2D1207800F0080008283C
:10F730002DD1A069B8B101208B490860FFF79EFB6D
:10F74000054606E0FFF79AFB401B022801D903207B
:10F750000EE78348406A00F002000028F2D0012042
:10F7600001F06EFD13E000207F490860FFF786FB83
:10F77000054606E0FFF782FB401B022801D9032063
:10F78000F6E67748406A00F002000028F2D12078BF
:10F7900000F00400042873D100277148C06900F00C
:10F7A000805070B900BF6E48C06940F080506C490D
:10F7B000C8610846C06900F08050009000BF00BFDB
:10F7C00001276A48006800F48070B0B96748006893
:10F7D00040F4807065490860FFF750FB054606E07D
:10F7E000FFF74CFB401B642801D90320C0E65F48AB
:10F7F000006800F480700028F2D000BFE0680128A3
:10F8000006D15748006A40F001005549086227E0D8
:10F81000E06858B95248006A20F001005049086277
:10F820000846006A20F00400086219E0E068052834
:10F830000BD14B48006A40F0040049490862084671
:10F84000006A40F0010008620AE04548006A20F0C2
:10F850000100434908620846006A20F0040008627B
:10F8600000BFE068A0B1FFF709FB054609E0FFF71C
:10F8700005FB401B41F28831884202D9032077E61C
:10F8800022E03748006A00F002000028EFD012E0C2
:10F89000FFF7F4FA054608E0FFF7F0FA401B41F2E3
:10F8A0008831884201D9032062E62D48006A00F0C1
:10F8B00002000028F0D1012F05D12948C06920F0AD
:10F8C00080502749C86100BFE069C8B32448406838
:10F8D00000F00C00082860D0E069022848D1002020
:10F8E00020490866FFF7CAFA054606E0FFF7C6FAA0
:10F8F000401B022801D903203AE61948006800F0AD
:10F9000000700028F2D1206AB0F5803F07D114487A
:10F91000406820F40030A168084311494860D4E9E8
:10F92000080108430E49496821F4741108430C4941
:10F93000486001200B490866FFF7A0FA054607E07A
:10F940003DE0FFF79BFA401B022801D903200FE698
:10F950000348006800F000700028F2D02FE000009B
:10F960000010024000004242800442420070004009
:10F97000002014490866FFF781FA054606E0FFF704
:10F980007DFA401B022801D90320F1E50E480068EA
:10F9900000F000700028F2D111E0E069012800D1E8
:10F9A000E6E50948466806F48031206A814204D1C0
:10F9B00006F47011606A814201D00120D8E5002070
:10F9C000D6E5000000004242001002400021024A39
:10F9D00082F820107047000048160020F8B5044651
:10F9E0002068466820688568C5F3801048B905F02E
:10F9F000010030B1C6F3801018B12046216C884751
:10FA0000F8BDC5F3400030B1C6F3C01018B12046B0
:10FA1000616C8847F4E7C5F3401018B9C5F380104E
:10FA2000002871D0C6F3401000286DD0C5F38010B7
:10FA3000F0B194F8510003280ED0606D40F004003E
:10FA4000606500BF002000902068C06800902068BA
:10FA50008068009000BF0BE000BF0020009020688D
:10FA6000C068009020688068009000BF00BFC7E7B2
:10FA7000C5F3401088B1606D40F00100606500BFC3
:10FA8000002000902068806800902068006820F0C6
:10FA900040002168086000BF00BF606D70B320683F
:10FAA000406820F0E00021684860012084F851009F
:10FAB00006F0020010B906F0010000B320684068AB
:10FAC00020F0030021684860E06C50B10F48E16C01
:10FAD0004863E06CFEF7B2FB18B1606D40F0400087
:10FAE0006065A06C50B10948A16C4863A06CFEF73A
:10FAF000A5FB18B1606D40F04000606502E0204653
:10FB0000FFF764FF7CE7FFE700BF79E7C91401084E
:10FB100010B504460CB9012010BD606A38B96068A0
:10FB2000B0F5827F00D105E00021E16102E0002113
:10FB3000216161610021A16294F8510028B900207F
:10FB400084F85000204600F043F8022084F8510069
:10FB50002068006820F0400021680860A08800F458
:10FB60008270218901F404410843A18901F40061F4
:10FB70000843217C01F002010843217D01F00101CD
:10FB80000843218B01F400710843217F01F0380103
:10FB900008432021095D01F080010843218D01F413
:10FBA00000510843216808600421A06901EA10405F
:10FBB000216848602068C06920F400602168C8613D
:10FBC00000206065012084F851000020A4E70000B7
:10FBD00010B586B004460020029003900490059072
:10FBE0003C492068884272D100BF3B48C06940F45C
:10FBF00080403949C8610846C06900F480400190DE
:10FC000000BF00BF00BF0846806940F0080088615F
:10FC10000846806900F00800019000BF00BF2F482F
:10FC20000078012823D14FF4204002900220039055
:10FC3000012004900320059002A92948FEF778FFCF
:10FC40004FF480500290012003900220059002A9F9
:10FC50002348FEF76DFF4FF480400290122003907E
:10FC60000020049002A91E48FEF762FF27E04FF42F
:10FC70003040029000200390049002A91848FEF73B
:10FC800057FF4FF4805002901648039000200490D4
:10FC900002A91348FEF74CFF4FF480400290022067
:10FCA00003900320059002A90D48FEF741FF0022B2
:10FCB00011462820FFF79EF92820FFF78BF9002234
:10FCC00011462420FFF796F92420FFF783F906B0A8
:10FCD00010BD00000038004000100240A4280020A1
:10FCE000000C0140000031100121024A82F820106E
:10FCF0007047000048160020F0B50446002700BFFA
:10FD000094F85000012801D10220F0BD012084F8B0
:10FD1000500000BF94F851506668012D08D0B6F528
:10FD2000827F03D1A06808B9042D01D0022735E0F5
:10FD300009B102B10BB9012730E094F85100042851
:10FD400002D0052084F85100002060652163A3865D
:10FD5000E386A263A387E387E06820B113482064A9
:10FD60001348606403E0134820641348606420680B
:10FD7000406840F0E000D4F800C0CCF804002068EF
:10FD8000006800F04000402807D02068006840F07C
:10FD90004000D4F800C0CCF8000000BF00BF002035
:10FDA00084F8500000BF3846AFE700003D1301085B
:10FDB000A513010871130108D91301080221024A91
:10FDC00082F82010704700004816002070B50446E5
:10FDD0002546681EB0F1807F01D301200FE0681E28
:10FDE0004FF0E02148610F214FF0FF3002F08EF814
:10FDF00000204FF0E021886107200861002070BDDD
:10FE00007047704710B50346002200BF93F83C00CE
:10FE1000012801D1022010BD012083F83C0000BF61
:10FE200022F0FF00CC6840EA040222F440708C68A3
:10FE300040EA040222F480604C6840EA040222F4A2
:10FE400000600C6840EA040222F480500C6940EA29
:10FE5000040222F400504C6940EA040222F480407B
:10FE6000CC6940EA04021868426400BF002083F8AD
:10FE70003C0000BF00BFCEE730B502460B4600BFD6
:10FE800092F83C00012801D1022030BD012082F807
:10FE90003C0000BF022082F83D00106844681068F2
:10FEA000816824F070041868044310684460144D9D
:10FEB0001068A84213D0134D1068A8420FD01068E4
:10FEC000B0F1804F0BD0104D1068A84207D00F4DF5
:10FED0001068A84203D00E4D1068A84205D121F049
:10FEE00080015868014310688160012082F83D005C
:10FEF00000BF002082F83C0000BF00BFC5E7000043
:10FF0000002C014000340140000400400008004083
:10FF1000000C004010B504460CB9012010BD94F847
:10FF20003D0028B9002084F83C00204600F026F867
:10FF3000022084F83D00211D206801F0C1FB012052
:10FF400084F8460000BF84F83E0001213F2001559F
:10FF5000402001554120015500BF00BF012084F819
:10FF6000420043200155442001554520015500BF62
:10FF7000012084F83D000020D0E7000010B586B0D5
:10FF80000446002002900390049005902B492068BD
:10FF900088420DD100BF2A48806940F4006028499A
:10FFA00088610846806900F40060019000BF42E06B
:10FFB00024492068884224D100BF2148C06940F00C
:10FFC00002001F49C8610846C06900F002000190A4
:10FFD00000BF00BF00BF0846806940F02000886174
:10FFE0000846806900F02000019000BF00BF042097
:10FFF000029000200390049002A91348FEF798FD98
:020000040801F1
:1000000019E012492068884215D100BF0C48806968
:1000100040F400500A4988610846806900F40050A5
:10002000019000BF00BF002211462C20FEF7E2FF26
:100030002C20FEF7CFFF06B010BD0000002C0140C1
:100040000010024000040040001401400034014050
:10005000014691F83D00012801D00120704702209F
:1000600081F83D000868C06840F001000B68D86066
:10007000164B0868984213D0154B086898420FD069
:100080000868B0F1804F0BD0124B0868984207D037
:10009000114B0868984203D0104B086898420CD165
:1000A0000868806800F00702062A0CD0086800681B
:1000B00040F001000B68186005E00868006840F037
:1000C00001000B6818600020C8E70000002C014008
:1000D000003401400004004000080040000C0040D3
:1000E0002DE9F04104460D4600BF94F83C0001287C
:1000F00002D10220BDE8F081012084F83C0000BF5D
:10010000022084F83D002068866826F0770626F4F1
:100110007F46206886602868502833D00CDC202871
:1001200050D004DC00284BD0102851D149E03028B1
:1001300049D040284CD139E060282DD0702807D014
:10014000B0F5805F03D0B0F5005F41D10DE040E035
:10015000D5E902136A68206801F000FB2068866810
:1001600046F077062068866033E0D5E902136A68B6
:10017000206801F0F3FA2068806840F4804021682C
:10018000886026E0EA686968206801F0D7FB5021A2
:10019000206801F0EEFA1CE0EA686968206801F066
:1001A000E0FB6021206801F0E4FA12E0EA68696887
:1001B000206801F0C3FB4021206801F0DAFA08E072
:1001C00000BF00BF00BF2968206801F0D2FA00E03C
:1001D00000BF00BF012084F83D0000BF002084F86C
:1001E0003C0000BF00BF85E7704710B5044620689B
:1001F0000069C0F34000D8B12068C068C0F3400077
:10020000B0B16FF0020021680861012020772068FA
:10021000806900F0030018B12046FFF7E5FF05E014
:10022000204600F0D9F8204600F089F90020207718
:1002300020680069C0F38000D8B12068C068C0F3AE
:100240008000B0B16FF004002168086102202077BF
:100250002068806900F4407018B12046FFF7C4FFA1
:1002600005E0204600F0B8F8204600F068F90020CC
:10027000207720680069C0F3C000D8B12068C0684A
:10028000C0F3C000B0B16FF008002168086104201D
:1002900020772068C06900F0030018B12046FFF7FE
:1002A000A3FF05E0204600F097F8204600F047F94C
:1002B0000020207720680069C0F30010D8B12068C2
:1002C000C068C0F30010B0B16FF010002168086181
:1002D000082020772068C06900F4407018B12046DB
:1002E000FFF782FF05E0204600F076F8204600F098
:1002F00026F9002020772068006900F0010058B13D
:100300002068C06800F0010030B16FF00100216882
:100310000861204600F014F920680069C0F3C0109D
:1003200058B12068C068C0F3C01030B16FF08000D1
:10033000216808612046FFF763FD20680069C0F36B
:10034000801058B12068C068C0F3801030B16FF0E1
:10035000400021680861204600F0F3F82068006939
:10036000C0F3401058B12068C068C0F3401030B1ED
:100370006FF02000216808612046FFF742FD10BDA4
:1003800010B586B0044600200290039004900590BA
:100390000E492068884216D100BF0D48806940F0A0
:1003A00004000B4988610846806900F00400019050
:1003B00000BF00BF8815029002200390059002A99B
:1003C0000448FEF7B5FB06B010BD0000002C01404C
:1003D0000010024000080140704770B504460D4609
:1003E000164600BF94F83C00012801D1022070BDE0
:1003F000012084F83C0000BF36B1042E1BD0082E2B
:1004000031D00C2E5ED145E02946206801F0BAF9C2
:100410002068806940F00800216888612068806950
:1004200020F00400216888612068806929690843F8
:100430002168886147E02946206801F0DBF92068DF
:10044000806940F40060216888612068806920F438
:1004500080602168886120688069296940EA0120FC
:10046000216888612FE02946206801F001FA2068A0
:10047000C06940F008002168C8612068C06920F0A8
:1004800004002168C8612068C0692969084321689F
:10049000C86118E02946206801F026FA2068C06982
:1004A00040F400602168C8612068C06920F4806061
:1004B0002168C8612068C069296940EA0120216873
:1004C000C86100E000BF00BF00BF002084F83C000E
:1004D00000BF00BF8BE710B504460CB9012010BD6A
:1004E00094F83D0028B9002084F83C00204600F034
:1004F00025F8022084F83D00211D206801F0E0F875
:10050000012084F8460000BF84F83E0001213F200E
:100510000155402001554120015500BF00BF012079
:1005200084F84200432001554420015545200155DF
:1005300000BF012084F83D000020D0E770477047DD
:1005400070477047F8B504460E46174694F83E00CB
:1005500020282ED106B10FB90120F8BD00BF94F8B4
:100560003C00012801D10220F7E7012084F83C007B
:1005700000BF20633A463146204601F0C3FB0546E2
:10058000ADB9206B012811D100BF00200090206878
:100590000068009020684068009000BF00BF20689D
:1005A000C06840F010002168C86000E001252846BE
:1005B000D3E70220D1E70000034A904202D1012292
:1005C000024B1A7070470000D82700206C000020F2
:1005D00010B504462068C06820F490702168C86097
:1005E0002068406920F0010021684861206B0128E3
:1005F00005D12068C06820F010002168C86020681C
:10060000406900F04000B8B12068406920F0400027
:1006100021684861A06B78B10020A16B4863A06B92
:10062000FDF7E0FD40B1A06BFDF7DCFE202803D113
:1006300010202064032010BD0020E085202084F8D5
:100640003E000020206300BFF5E700000349884218
:1006500002D10121024A117070470000D827002002
:100660006C0000202DE9F84F0446206805682068DA
:10067000C668206847694FF00009CA4605F00F09AF
:10068000B9F1000F0AD105F0200038B106F02000C2
:1006900020B1204601F046FABDE8F88FB9F1000F0D
:1006A00071D007F0010018B906F4907000286AD0E4
:1006B00005F0010030B106F4807018B1206C40F0F4
:1006C0000100206405F0040030B107F0010018B10A
:1006D000206C40F00200206405F0020030B107F009
:1006E000010018B1206C40F00400206405F00800FF
:1006F00048B106F0200010B907F0010018B1206CD5
:1007000040F008002064206C68B305F0200028B198
:1007100006F0200010B1204601F004FA206840697C
:10072000C0F3801A206C00F0080010B9BAF1000F75
:1007300022D0204601F0C1F92068406900F0400055
:10074000B0B12068406920F0400021684861A06B8A
:1007500050B15648A16B4863A06BFDF76FFD10B117
:10076000A06B416B88470CE02046FFF76FFF08E065
:100770002046FFF76BFF04E02046FFF767FF0020ED
:10078000206489E7FFE7206B012878D105F010008D
:10079000002874D006F01000002870D000BF0020A0
:1007A000009020680068009020684068009000BFBA
:1007B00000BF2068406900F04000C0B3A06B006833
:1007C00040681FFA80F8B8F1000F2FD0A08D404587
:1007D0002CDDA4F82E80A06B806920281FD0206813
:1007E000C06820F480702168C8602068406920F0EB
:1007F0000100216848612068406920F040002168BC
:100800004861202084F83E00002020632068C068F2
:1008100020F010002168C860A06BFDF7E3FCA08DFC
:10082000E28D801A81B22046FFF7C6FE34E7FFE76B
:10083000A08DE18D401A1FFA80F8E08DE8B1B8F183
:10084000000F1AD02068C06820F490702168C8603A
:100850002068406920F0010021684861202084F868
:100860003E00002020632068C06820F0100021684E
:10087000C86041462046FFF79FFE0DE7FFE705F001
:10088000800030B106F0800018B1204601F0A9FACE
:1008900002E705F0400030B106F0400018B12046F4
:1008A00001F026F9F8E600BFF6E600008B19010812
:1008B00010B504460CB9012010BDA06900B100E0DC
:1008C00000BF94F83D0028B9002084F83C00204681
:1008D00000F028F8242084F83D002068C06820F447
:1008E00000502168C860204601F08EF92068006938
:1008F00020F49040216808612068406920F02A00B7
:10090000216848612068C06840F400502168C860D0
:1009100000202064202084F83D0084F83E00002060
:10092000CAE7000010B586B004460020029003908C
:10093000049005905749206888426FD100BF5648FF
:10094000806940F48040544988610846806900F419
:100950008040019000BF00BF00BF0846806940F0A2
:10096000040088610846806900F00400019000BF1F
:1009700000BF48150290022003900320059002A9B1
:100980004648FEF7D5F84FF48060029000200390AF
:10099000049002A94148FEF7CBF84148414908605C
:1009A0000020486000213F4881608021C160002113
:1009B0000161416181614FF40051C161FDF7E2FEC7
:1009C00008B1FCF7E0FC00BF3648A063446200BFFA
:1009D00033481438344908601020486000213248F8
:1009E00081608021C16000210161416181614FF41A
:1009F0000051C161FDF7C6FE08B1FCF7C4FC00BFA1
:100A000029486063446200BF002211462520FEF79A
:100A1000F1FA2520FEF7DEFA3AE0FFE723492068E5
:100A2000884235D100BF1C48C06940F400301A49E3
:100A3000C8610846C06900F40030019000BF00BFE3
:100A400000BF0846806940F004008861084680695C
:100A500000F00400019000BF00BF042002900220BB
:100A600003900320059002A90C48FEF761F80820C6
:100A7000029000200390049002A90848FEF758F85D
:100A8000002211462620FEF7B5FA2620FEF7A2FA2C
:100A900006B010BD003801400010024000080140BF
:100AA00058000240602800201C280020004400401C
:100AB00070B504460D46164694F83E00202816D11F
:100AC00005B10EB9012070BD00BF94F83C000128AB
